:100000000C9461000C9473000C9473000C947300B6
:100010000C9473000C9473000C9473000C94730094
:100020000C9473000C9473000C9473000C94730084
:100030000C9473000C9473000C9473000C94730074
:100040000C949C010C9473000C9473000C9473003A
:100050000C9473000C9473000C9473000C94730054
:100060000C9473000C947300000000002300260021
:10007000290000000000240027002A0000000000E2
:10008000250028002B0004040404040404040202D4
:100090000202020203030303030301020408102007
:1000A0004080010204081020010204081020000012
:1000B0000008000201000003040700000000000027
:1000C000000011241FBECFEFD8E0DEBFCDBF21E07E
:1000D000A0E0B1E001C01D92A930B207E1F70E9493
:1000E0002B020C9470030C94000090E0FC01E2558C
:1000F000FF4F2491FC01E656FF4F3491FC01EA5773
:10010000FF4FE491EE23C9F0222339F0233001F1AF
:10011000A8F4213019F1223029F1F0E0EE0FFF1F91
:10012000E458FF4FA591B4918FB7F894EC91611109
:1001300026C030953E233C938FBF08952730A9F009
:100140002830C9F0243049F7809180008F7D03C0AA
:10015000809180008F7780938000DFCF84B58F7788
:1001600084BDDBCF84B58F7DFBCF8091B0008F77CE
:100170008093B000D2CF8091B0008F7DF9CF3E2B1D
:10018000DACFCF93DF9390E0FC01E656FF4F249146
:100190008A579F4FFC0184918823D1F090E0880F0B
:1001A000991FFC01EE58FF4FA591B491FC01E45852
:1001B000FF4FC591D49161110EC09FB7F8948C91F7
:1001C000E22FE0958E238C932881E223E8839FBF62
:1001D000DF91CF9108958FB7F894EC91E22BEC93D7
:1001E0008FBFF6CF3FB7F89480910501909106013B
:1001F000A0910701B091080126B5A89B05C02F3F2B
:1002000019F00196A11DB11D3FBFBA2FA92F982F3C
:100210008827BC01CD01620F711D811D911D42E037
:10022000660F771F881F991F4A95D1F708958F92FF
:100230009F92AF92BF92CF92DF92EF92FF920E9475
:10024000F2004B015C0188ECC82ED12CE12CF12C82
:100250000E94F200681979098A099B09683E734077
:1002600081059105A8F321E0C21AD108E108F1083F
:1002700088EE880E83E0981EA11CB11CC114D10425
:10028000E104F10429F7FF90EF90DF90CF90BF9049
:10029000AF909F908F9008950F931F93CF93DF930C
:1002A000C82FD62F172F61E00E94C10060E08C2F6D
:1002B0000E94750083E090E00197F1F761E08C2FD8
:1002C0000E94750083E290E00197F1F760E08C2FC7
:1002D0000E94750060E08D2F0E94C1008D2F912F2C
:1002E000FC01E656FF4F6491FC01EA57FF4FE49191
:1002F000F0E0EE0FFF1FE859FF4F8591949100E465
:1003000012E42FE030E0462F0E94E60161157105EE
:100310008105910529F06F5F7F4F8F4F9F4F9F7031
:1003200028EA36E140E050E00E942F03C901DF9146
:10033000CF911F910F9108951F920F920FB60F92B8
:1003400011242F933F938F939F93AF93BF938091EB
:10035000010190910201A0910301B091040130913B
:10036000000123E0230F2D3758F50196A11DB11D83
:10037000209300018093010190930201A093030157
:10038000B09304018091050190910601A0910701AD
:10039000B09108010196A11DB11D809305019093B4
:1003A0000601A0930701B0930801BF91AF919F91FF
:1003B0008F913F912F910F900FBE0F901F90189526
:1003C00026E8230F0296A11DB11DD2CFCF92DF9256
:1003D000EF92FF920F931F93E82FF92F05C0015062
:1003E00011092109310961F1908196239417B9F31C
:1003F00005C0015011092109310911F1908196239D
:100400009413F7CFC12CD12CE12CF12C0AC08FEF23
:10041000C81AD80AE80AF80A0C151D052E053F056A
:1004200079F080818623841791F36C2D7D2D8E2D9C
:100430009F2D1F910F91FF90EF90DF90CF90089527
:1004400060E070E080E090E01F910F91FF90EF90EE
:10045000DF90CF900895789484B5826084BD84B590
:10046000816084BD85B5826085BD85B5816085BDAF
:1004700080916E00816080936E0010928100809167
:1004800081008260809381008091810081608093EF
:100490008100809180008160809380008091B10014
:1004A00084608093B1008091B00081608093B0003F
:1004B00080917A00846080937A0080917A008260D3
:1004C00080937A0080917A00816080937A00809195
:1004D0007A00806880937A001092C10061E088E021
:1004E0000E94C10061E083E00E94C10061E087E0FA
:1004F0000E94C10061E084E00E94C10061E086E0EA
:100500000E94C10061E085E00E94C10080E0E82E09
:1005100080E0F82E69E070E08AE090E00E944C01F3
:100520008C016BE070E08CE090E00E944C01EC01EB
:10053000081719070CF044C060E088E00E947500BD
:1005400060E085E00E94750060E083E00E94750035
:1005500060E086E00E94750061E087E00E9475001F
:1005600061E084E00E9475000E94170169E070E07C
:100570008AE090E00E944C018C016BE070E08CE01E
:1005800090E00E944C01EC0160E088E00E94750060
:1005900060E085E00E94750061E083E00E947500E4
:1005A00061E086E00E94750060E087E00E947500CF
:1005B00060E084E00E9475000C171D07BCF248C083
:1005C00060E088E00E94750060E085E00E947500B0
:1005D00060E083E00E94750060E086E00E947500A4
:1005E00061E087E00E94750061E084E00E94750090
:1005F0000E941701C017D1073CF569E070E08AE05E
:1006000090E00E944C018C016BE070E08CE090E087
:100610000E944C01EC0161E088E00E94750061E0FD
:1006200085E00E94750060E083E00E94750060E054
:1006300086E00E94750060E087E00E94750060E03F
:1006400084E00E947500D6CF0C171D070CF474CF00
:10065000E114F10409F45ECF0E9400005BCF052E87
:1006600097FB1EF400940E94460357FD07D00E949A
:100670004E0307FC03D04EF40C944603509540956E
:10068000309521953F4F4F4F5F4F0895909580953E
:10069000709561957F4F8F4F9F4F0895A1E21A2E5D
:1006A000AA1BBB1BFD010DC0AA1FBB1FEE1FFF1F16
:1006B000A217B307E407F50720F0A21BB30BE40B66
:1006C000F50B661F771F881F991F1A9469F76095AD
:1006D0007095809590959B01AC01BD01CF01089567
:0406E000F894FFCFBC
:00000001FF
